:100000000C9462000C943F030C9418030C948A0027
:100010000C948A000C948A000C948A000C948A0038
:100020000C948A000C948A000C948A000C948A0028
:100030000C948A000C948A000C948A000C948A0018
:100040000C94CE020C948A000C948C030C946603DE
:100050000C948A000C948A000C948A000C948A00F8
:100060000C948A000C948A000000000024002700F1
:100070002A0000000000250028002B0000000000DE
:1000800023002600290004040404040404040202DA
:100090000202020203030303030301020408102007
:1000A0004080010204081020010204081020000012
:1000B0000008000201000003040700000000000027
:1000C0000000080511241FBECFEFD8E0DEBFCDBF72
:1000D00011E0A0E0B1E0EEEBFAE002C005900D9275
:1000E000AA31B107D9F721E0AAE1B1E001C01D9220
:1000F000A23CB207E1F710E0C2E6D0E004C02197CD
:10010000FE010E945705C136D107C9F70E94BE0300
:100110000C945D050C940000833081F028F481304C
:1001200099F08230A9F008958730A9F08830C9F09D
:100130008430B1F4809180008F7D03C08091800075
:100140008F7780938000089584B58F7784BD08955C
:1001500084B58F7DFBCF8091B0008F778093B00006
:1001600008958091B0008F7DF9CFCF93DF93282F32
:1001700030E0F901E255FF4F8491F901E656FF4F57
:10018000D491F901EA57FF4FC491CC23A1F081111A
:100190000E948C00EC2FF0E0EE0FFF1FE458FF4FA1
:1001A000A591B491EC91ED2381E090E009F480E019
:1001B000DF91CF91089580E090E0FACF1F93CF9325
:1001C000DF93282F30E0F901E255FF4F8491F901C8
:1001D000E656FF4FD491F901EA57FF4FC491CC2363
:1001E000A9F0162F81110E948C00EC2FF0E0EE0F89
:1001F000FF1FEE58FF4FA591B4918FB7F894EC9183
:10020000111108C0D095DE23DC938FBFDF91CF9111
:100210001F910895DE2BF8CFCF93DF9390E0FC0180
:10022000E656FF4F24918A579F4FFC018491882303
:10023000D1F090E0880F991FFC01E859FF4FA5917C
:10024000B491FC01EE58FF4FC591D49161110EC0DD
:100250009FB7F8948C91E22FE0958E238C932881A0
:10026000E223E8839FBFDF91CF9108958FB7F89481
:10027000EC91E22BEC938FBFF6CF3FB7F8948091CF
:10028000BE019091BF01A091C001B091C10126B5FE
:10029000A89B05C02F3F19F00196A11DB11D3FBFBE
:1002A000BA2FA92F982F8827BC01CD01620F711D8D
:1002B000811D911D42E0660F771F881F991F4A9587
:1002C000D1F70895CF93DF9382E00E94B500EC014F
:1002D00083E00E94B5002097A1F4009731F480914B
:1002E000B7019091B801019707C0019789F48091F7
:1002F000B7019091B80101969093B8018093B7012E
:1003000007C0C130D10521F4009789F3019739F373
:100310006C2F86E00E94DE006C2F8DE0DF91CF9184
:100320000C94DE00CF93DF9382E00E94B500EC01D5
:1003300083E00E94B5000097B1F4209739F4209132
:10034000B7013091B8012F5F3F4F08C0219791F45A
:100350002091B7013091B801215031093093B80193
:100360002093B70107C08130910521F4209781F3D4
:10037000219729F3682F87E0DF91CF910C94DE005D
:100380000895AF92BF92CF92DF92EF92FF920F93B8
:100390001F93CF93DF936C017B018B01040F151F1B
:1003A000EB015E01AE18BF08C017D10759F0699183
:1003B000D601ED91FC910190F081E02DC6010995E7
:1003C000892B79F7C501DF91CF911F910F91FF9094
:1003D000EF90DF90CF90BF90AF900895FC01538DC8
:1003E000448D252F30E0842F90E0821B930B54170F
:1003F00010F0CF96089501970895FC01918D828D9C
:10040000981761F0A28DAE0FBF2FB11D5D968C9134
:10041000928D9F5F9F73928F90E008958FEF9FEF73
:100420000895FC01918D828D981731F0828DE80F2F
:10043000F11D858D90E008958FEF9FEF0895FC01E9
:10044000918D228D892F90E0805C9F4F821B9109B6
:100450008F73992708958AE191E00E941F0221E09D
:10046000892B09F420E0822F089580E090E0892B09
:1004700029F00E942B0281110C9400000895FC01C8
:10048000A48DA80FB92FB11DA35ABF4F2C91848DF5
:1004900090E001968F739927848FA689B7892C9352
:1004A000A089B1898C91837080648C93938D848DA5
:1004B000981306C00288F389E02D80818F7D8083A8
:1004C0000895EF92FF920F931F93CF93DF93EC0168
:1004D00081E0888F9B8D8C8D98131AC0E889F989EB
:1004E000808185FF15C09FB7F894EE89FF896083EE
:1004F000E889F98980818370806480839FBF81E06F
:1005000090E0DF91CF911F910F91FF90EF900895B0
:10051000F62E0B8D10E00F5F1F4F0F731127E02E8B
:100520008C8D8E110CC00FB607FCFACFE889F989C3
:10053000808185FFF5CFCE010E943F02F1CFEB8D88
:10054000EC0FFD2FF11DE35AFF4FF0829FB7F89497
:100550000B8FEA89FB8980818062CFCFCF93DF93B5
:10056000EC01888D8823B9F0AA89BB89E889F989CB
:100570008C9185FD03C0808186FD0DC00FB607FC00
:10058000F7CF8C9185FFF2CF808185FFEDCFCE0133
:100590000E943F02E9CFDF91CF9108951F920F9201
:1005A0000FB60F9211242F933F938F939F93AF9386
:1005B000BF938091BA019091BB01A091BC01B09111
:1005C000BD013091B90123E0230F2D3758F5019675
:1005D000A11DB11D2093B9018093BA019093BB0175
:1005E000A093BC01B093BD018091BE019091BF0169
:1005F000A091C001B091C1010196A11DB11D8093D0
:10060000BE019093BF01A093C001B093C101BF91FF
:10061000AF919F918F913F912F910F900FBE0F90AF
:100620001F90189526E8230F0296A11DB11DD2CF69
:100630001F920F920FB60F9211242F933F934F9357
:100640005F936F937F938F939F93AF93BF93EF933A
:10065000FF93E0910201F09103010995FF91EF9161
:10066000BF91AF919F918F917F916F915F914F91CA
:100670003F912F910F900FBE0F901F9018951F92D2
:100680000F920FB60F9211242F933F934F935F93C6
:100690006F937F938F939F93AF93BF93EF93FF934A
:1006A000E0910001F09101010995FF91EF91BF9157
:1006B000AF919F918F917F916F915F914F913F91FA
:1006C0002F910F900FBE0F901F9018951F920F92B1
:1006D0000FB60F9211242F933F934F935F936F9315
:1006E0007F938F939F93AF93BF93EF93FF938AE191
:1006F00091E00E943F02FF91EF91BF91AF919F91D6
:100700008F917F916F915F914F913F912F910F90BA
:100710000FBE0F901F9018951F920F920FB60F9259
:1007200011242F938F939F93EF93FF93E0912A01CE
:10073000F0912B018081E0913001F091310182FD37
:100740001BC09081809133018F5F8F7320913401A2
:10075000821741F0E0913301F0E0E65EFE4F958FA5
:1007600080933301FF91EF919F918F912F910F9083
:100770000FBE0F901F9018958081F4CFCF93DF9319
:10078000CDB7DEB7A1970FB6F894DEBF0FBECDBFD1
:10079000789484B5826084BD84B5816084BD85B55C
:1007A000826085BD85B5816085BD80916E00816068
:1007B00080936E001092810080918100826080930E
:1007C0008100809181008160809381008091800010
:1007D0008160809380008091B10084608093B1003B
:1007E0008091B00081608093B00080917A00846035
:1007F00080937A0080917A00826080937A00809161
:100800007A00816080937A0080917A00806880937A
:100810007A001092C100E0912A01F0912B0182E050
:100820008083E0912601F09127011082E091280158
:10083000F091290180E1808310923201E0912E0134
:10084000F0912F0186E08083E0912C01F0912D0141
:10085000808180618083E0912C01F0912D01808165
:1008600088608083E0912C01F0912D018081806867
:100870008083E0912C01F0912D0180818F7D808318
:1008800061E08DE00E940C0160E08DE00E94DE00DE
:1008900060E08EE00E940C0160E08FE00E940C019D
:1008A00060E082E00E940C0160E083E00E940C01A5
:1008B00061E086E00E940C0161E087E00E940C018B
:1008C00082E691E09093010180930001809169009C
:1008D0008C7F816080936900E89A82E991E090932F
:1008E00003018093020180916900837F846080937B
:1008F0006900E99A9AE0892E912CA12CB12C00E094
:1009000010E00E943D012B013C0188EEC82E83E0DF
:10091000D82EE12CF12C0E943D016419750986093D
:100920009709683E734081059105A8F321E0C21A3A
:10093000D108E108F10888EE480E83E0581E611CDA
:10094000711CC114D104E104F10429F7C090B7016E
:10095000D090B8010D2C000CEE08FF08F7FE42C045
:100960006DE28AE191E00E94610222273327A9010A
:100970002C193D094E095F0919A2CE0181967C010F
:10098000CA01B901A50194010E943505605DF70116
:1009900062937F01211531054105510589F7E11465
:1009A000F10461F001900020E9F73197AF014E1991
:1009B0005F09B7018AE191E00E94C10142E050E085
:1009C00066E171E08AE191E00E94C1010115110523
:1009D00009F497CF0E942B02882309F492CF0E943A
:1009E00000008FCFA701960119A2CE0181967C014C
:1009F000CA01B901A50194010E943505605DF701A6
:100A000062937F01211531054105510589F7C7CF53
:100A1000EAE1F1E01382128288EE93E0A0E0B0E018
:100A200084839583A683B78388E091E09183808354
:100A300085EC90E09587848784EC90E097878687A3
:100A400080EC90E0918B808B81EC90E0938B828B9B
:100A500082EC90E0958B848B86EC90E0978B868B74
:100A6000118E128E138E148E0895A1E21A2EAA1BD7
:100A7000BB1BFD010DC0AA1FBB1FEE1FFF1FA2174E
:100A8000B307E407F50720F0A21BB30BE40BF50B4B
:100A9000661F771F881F991F1A9469F760957095D4
:100AA000809590959B01AC01BD01CF010895EE0F9B
:0E0AB000FF1F0590F491E02D0994F894FFCFFC
:100ABE00C001C001000000006102C101EE01AE02E2
:0A0ACE001F02FD0111020D0A0000D5
:00000001FF
